{
  "_format": "hh-sol-artifact-1",
  "contractName": "TheBlockchainCoder",
  "sourceName": "contracts/TheBlockchainCoders.sol",
  "abi": [
    {
      "inputs": [
        {
          "internalType": "uint256",
          "name": "_initialSupply",
          "type": "uint256"
        }
      ],
      "stateMutability": "nonpayable",
      "type": "constructor"
    },
    {
      "anonymous": false,
      "inputs": [
        {
          "indexed": true,
          "internalType": "address",
          "name": "_owner",
          "type": "address"
        },
        {
          "indexed": true,
          "internalType": "address",
          "name": "_spender",
          "type": "address"
        },
        {
          "indexed": false,
          "internalType": "uint256",
          "name": "_value",
          "type": "uint256"
        }
      ],
      "name": "Approval",
      "type": "event"
    },
    {
      "anonymous": false,
      "inputs": [
        {
          "indexed": true,
          "internalType": "address",
          "name": "_from",
          "type": "address"
        },
        {
          "indexed": true,
          "internalType": "address",
          "name": "_to",
          "type": "address"
        },
        {
          "indexed": false,
          "internalType": "uint256",
          "name": "_value",
          "type": "uint256"
        }
      ],
      "name": "Transfer",
      "type": "event"
    },
    {
      "inputs": [],
      "name": "_userId",
      "outputs": [
        {
          "internalType": "uint256",
          "name": "",
          "type": "uint256"
        }
      ],
      "stateMutability": "view",
      "type": "function"
    },
    {
      "inputs": [
        {
          "internalType": "address",
          "name": "",
          "type": "address"
        },
        {
          "internalType": "address",
          "name": "",
          "type": "address"
        }
      ],
      "name": "allowance",
      "outputs": [
        {
          "internalType": "uint256",
          "name": "",
          "type": "uint256"
        }
      ],
      "stateMutability": "view",
      "type": "function"
    },
    {
      "inputs": [
        {
          "internalType": "address",
          "name": "",
          "type": "address"
        }
      ],
      "name": "balanceOf",
      "outputs": [
        {
          "internalType": "uint256",
          "name": "",
          "type": "uint256"
        }
      ],
      "stateMutability": "view",
      "type": "function"
    },
    {
      "inputs": [],
      "name": "getTokenHolder",
      "outputs": [
        {
          "internalType": "address[]",
          "name": "",
          "type": "address[]"
        }
      ],
      "stateMutability": "view",
      "type": "function"
    },
    {
      "inputs": [
        {
          "internalType": "address",
          "name": "_address",
          "type": "address"
        }
      ],
      "name": "getTokenHolderData",
      "outputs": [
        {
          "internalType": "uint256",
          "name": "",
          "type": "uint256"
        },
        {
          "internalType": "address",
          "name": "",
          "type": "address"
        },
        {
          "internalType": "address",
          "name": "",
          "type": "address"
        },
        {
          "internalType": "uint256",
          "name": "",
          "type": "uint256"
        },
        {
          "internalType": "bool",
          "name": "",
          "type": "bool"
        }
      ],
      "stateMutability": "view",
      "type": "function"
    },
    {
      "inputs": [
        {
          "internalType": "uint256",
          "name": "",
          "type": "uint256"
        }
      ],
      "name": "holderToken",
      "outputs": [
        {
          "internalType": "address",
          "name": "",
          "type": "address"
        }
      ],
      "stateMutability": "view",
      "type": "function"
    },
    {
      "inputs": [],
      "name": "name",
      "outputs": [
        {
          "internalType": "string",
          "name": "",
          "type": "string"
        }
      ],
      "stateMutability": "view",
      "type": "function"
    },
    {
      "inputs": [],
      "name": "ownerOfContract",
      "outputs": [
        {
          "internalType": "address",
          "name": "",
          "type": "address"
        }
      ],
      "stateMutability": "view",
      "type": "function"
    },
    {
      "inputs": [],
      "name": "standard",
      "outputs": [
        {
          "internalType": "string",
          "name": "",
          "type": "string"
        }
      ],
      "stateMutability": "view",
      "type": "function"
    },
    {
      "inputs": [],
      "name": "symbol",
      "outputs": [
        {
          "internalType": "string",
          "name": "",
          "type": "string"
        }
      ],
      "stateMutability": "view",
      "type": "function"
    },
    {
      "inputs": [
        {
          "internalType": "address",
          "name": "",
          "type": "address"
        }
      ],
      "name": "tokenHolderInfos",
      "outputs": [
        {
          "internalType": "uint256",
          "name": "_tokenId",
          "type": "uint256"
        },
        {
          "internalType": "address",
          "name": "_from",
          "type": "address"
        },
        {
          "internalType": "address",
          "name": "_to",
          "type": "address"
        },
        {
          "internalType": "uint256",
          "name": "_totalToken",
          "type": "uint256"
        },
        {
          "internalType": "bool",
          "name": "_tokenHolder",
          "type": "bool"
        }
      ],
      "stateMutability": "view",
      "type": "function"
    },
    {
      "inputs": [],
      "name": "totalSupply",
      "outputs": [
        {
          "internalType": "uint256",
          "name": "",
          "type": "uint256"
        }
      ],
      "stateMutability": "view",
      "type": "function"
    },
    {
      "inputs": [
        {
          "internalType": "address",
          "name": "_to",
          "type": "address"
        },
        {
          "internalType": "uint256",
          "name": "_value",
          "type": "uint256"
        }
      ],
      "name": "transfer",
      "outputs": [
        {
          "internalType": "bool",
          "name": "success",
          "type": "bool"
        }
      ],
      "stateMutability": "nonpayable",
      "type": "function"
    },
    {
      "inputs": [
        {
          "internalType": "address",
          "name": "_from",
          "type": "address"
        },
        {
          "internalType": "address",
          "name": "_to",
          "type": "address"
        },
        {
          "internalType": "uint256",
          "name": "_value",
          "type": "uint256"
        }
      ],
      "name": "transferFrom",
      "outputs": [
        {
          "internalType": "bool",
          "name": "success",
          "type": "bool"
        }
      ],
      "stateMutability": "nonpayable",
      "type": "function"
    }
  ],
  "bytecode": "0x60806040526040518060400160405280601581526020017f54686520426c6f636b636861696e20436f646572730000000000000000000000815250600090816200004a919062000419565b506040518060400160405280600381526020017f54424300000000000000000000000000000000000000000000000000000000008152506001908162000091919062000419565b506040518060400160405280601a81526020017f40746865626c6f636b636861696e636f6465727320762e302e3100000000000081525060029081620000d8919062000419565b50348015620000e657600080fd5b5060405162001ab038038062001ab083398181016040528101906200010c919062000536565b33600460006101000a81548173ffffffffffffffffffffffffffffffffffffffff021916908373ffffffffffffffffffffffffffffffffffffffff16021790555080600860003373ffffffffffffffffffffffffffffffffffffffff1673ffffffffffffffffffffffffffffffffffffffff16815260200190815260200160002081905550806003819055505062000568565b600081519050919050565b7f4e487b7100000000000000000000000000000000000000000000000000000000600052604160045260246000fd5b7f4e487b7100000000000000000000000000000000000000000000000000000000600052602260045260246000fd5b600060028204905060018216806200022157607f821691505b602082108103620002375762000236620001d9565b5b50919050565b60008190508160005260206000209050919050565b60006020601f8301049050919050565b600082821b905092915050565b600060088302620002a17fffffffffffffffffffffffffffffffffffffffffffffffffffffffffffffffff8262000262565b620002ad868362000262565b95508019841693508086168417925050509392505050565b6000819050919050565b6000819050919050565b6000620002fa620002f4620002ee84620002c5565b620002cf565b620002c5565b9050919050565b6000819050919050565b6200031683620002d9565b6200032e620003258262000301565b8484546200026f565b825550505050565b600090565b6200034562000336565b620003528184846200030b565b505050565b5b818110156200037a576200036e6000826200033b565b60018101905062000358565b5050565b601f821115620003c95762000393816200023d565b6200039e8462000252565b81016020851015620003ae578190505b620003c6620003bd8562000252565b83018262000357565b50505b505050565b600082821c905092915050565b6000620003ee60001984600802620003ce565b1980831691505092915050565b6000620004098383620003db565b9150826002028217905092915050565b62000424826200019f565b67ffffffffffffffff81111562000440576200043f620001aa565b5b6200044c825462000208565b620004598282856200037e565b600060209050601f8311600181146200049157600084156200047c578287015190505b620004888582620003fb565b865550620004f8565b601f198416620004a1866200023d565b60005b82811015620004cb57848901518255600182019150602085019450602081019050620004a4565b86831015620004eb5784890151620004e7601f891682620003db565b8355505b6001600288020188555050505b505050505050565b600080fd5b6200051081620002c5565b81146200051c57600080fd5b50565b600081519050620005308162000505565b92915050565b6000602082840312156200054f576200054e62000500565b5b60006200055f848285016200051f565b91505092915050565b61153880620005786000396000f3fe608060405234801561001057600080fd5b50600436106100ea5760003560e01c8063760b06c51161008c578063a9059cbb11610066578063a9059cbb1461027d578063ba8e3557146102ad578063bc4530e7146102cb578063dd62ed3e146102e9576100ea565b8063760b06c5146101fb57806382b682631461022b57806395d89b411461025f576100ea565b806329cc66ed116100c857806329cc66ed1461015b578063468229ae1461018f5780635a3b7e42146101ad57806370a08231146101cb576100ea565b806306fdde03146100ef57806318160ddd1461010d57806323b872dd1461012b575b600080fd5b6100f7610319565b6040516101049190610eda565b60405180910390f35b6101156103a7565b6040516101229190610f15565b60405180910390f35b61014560048036038101906101409190610fbf565b6103ad565b604051610152919061102d565b60405180910390f35b61017560048036038101906101709190611048565b61069f565b604051610186959493929190611084565b60405180910390f35b610197610722565b6040516101a491906110d7565b60405180910390f35b6101b5610748565b6040516101c29190610eda565b60405180910390f35b6101e560048036038101906101e09190611048565b6107d6565b6040516101f29190610f15565b60405180910390f35b610215600480360381019061021091906110f2565b6107ee565b60405161022291906110d7565b60405180910390f35b61024560048036038101906102409190611048565b61082d565b604051610256959493929190611084565b60405180910390f35b6102676109e4565b6040516102749190610eda565b60405180910390f35b6102976004803603810190610292919061111f565b610a72565b6040516102a4919061102d565b60405180910390f35b6102b5610d77565b6040516102c2919061121d565b60405180910390f35b6102d3610e05565b6040516102e09190610f15565b60405180910390f35b61030360048036038101906102fe919061123f565b610e0b565b6040516103109190610f15565b60405180910390f35b60008054610326906112ae565b80601f0160208091040260200160405190810160405280929190818152602001828054610352906112ae565b801561039f5780601f106103745761010080835404028352916020019161039f565b820191906000526020600020905b81548152906001019060200180831161038257829003601f168201915b505050505081565b60035481565b6000600860008573ffffffffffffffffffffffffffffffffffffffff1673ffffffffffffffffffffffffffffffffffffffff16815260200190815260200160002054821115610431576040517f08c379a00000000000000000000000000000000000000000000000000000000081526004016104289061132b565b60405180910390fd5b600960008573ffffffffffffffffffffffffffffffffffffffff1673ffffffffffffffffffffffffffffffffffffffff16815260200190815260200160002060003373ffffffffffffffffffffffffffffffffffffffff1673ffffffffffffffffffffffffffffffffffffffff168152602001908152602001600020548211156104f0576040517f08c379a00000000000000000000000000000000000000000000000000000000081526004016104e790611397565b60405180910390fd5b81600860008673ffffffffffffffffffffffffffffffffffffffff1673ffffffffffffffffffffffffffffffffffffffff168152602001908152602001600020600082825461053f91906113e6565b9250508190555081600860008573ffffffffffffffffffffffffffffffffffffffff1673ffffffffffffffffffffffffffffffffffffffff1681526020019081526020016000206000828254610595919061141a565b9250508190555081600960008673ffffffffffffffffffffffffffffffffffffffff1673ffffffffffffffffffffffffffffffffffffffff16815260200190815260200160002060003373ffffffffffffffffffffffffffffffffffffffff1673ffffffffffffffffffffffffffffffffffffffff168152602001908152602001600020600082825461062891906113e6565b925050819055508273ffffffffffffffffffffffffffffffffffffffff168473ffffffffffffffffffffffffffffffffffffffff167fddf252ad1be2c89b69c2b068fc378daa952ba7f163c4a11628f55a4df523b3ef8460405161068c9190610f15565b60405180910390a3600190509392505050565b60076020528060005260406000206000915090508060000154908060010160009054906101000a900473ffffffffffffffffffffffffffffffffffffffff16908060020160009054906101000a900473ffffffffffffffffffffffffffffffffffffffff16908060030154908060040160009054906101000a900460ff16905085565b600460009054906101000a900473ffffffffffffffffffffffffffffffffffffffff1681565b60028054610755906112ae565b80601f0160208091040260200160405190810160405280929190818152602001828054610781906112ae565b80156107ce5780601f106107a3576101008083540402835291602001916107ce565b820191906000526020600020905b8154815290600101906020018083116107b157829003601f168201915b505050505081565b60086020528060005260406000206000915090505481565b600681815481106107fe57600080fd5b906000526020600020016000915054906101000a900473ffffffffffffffffffffffffffffffffffffffff1681565b6000806000806000600760008773ffffffffffffffffffffffffffffffffffffffff1673ffffffffffffffffffffffffffffffffffffffff16815260200190815260200160002060000154600760008873ffffffffffffffffffffffffffffffffffffffff1673ffffffffffffffffffffffffffffffffffffffff16815260200190815260200160002060020160009054906101000a900473ffffffffffffffffffffffffffffffffffffffff16600760008973ffffffffffffffffffffffffffffffffffffffff1673ffffffffffffffffffffffffffffffffffffffff16815260200190815260200160002060010160009054906101000a900473ffffffffffffffffffffffffffffffffffffffff16600760008a73ffffffffffffffffffffffffffffffffffffffff1673ffffffffffffffffffffffffffffffffffffffff16815260200190815260200160002060030154600760008b73ffffffffffffffffffffffffffffffffffffffff1673ffffffffffffffffffffffffffffffffffffffff16815260200190815260200160002060040160009054906101000a900460ff169450945094509450945091939590929450565b600180546109f1906112ae565b80601f0160208091040260200160405190810160405280929190818152602001828054610a1d906112ae565b8015610a6a5780601f10610a3f57610100808354040283529160200191610a6a565b820191906000526020600020905b815481529060010190602001808311610a4d57829003601f168201915b505050505081565b600081600860003373ffffffffffffffffffffffffffffffffffffffff1673ffffffffffffffffffffffffffffffffffffffff168152602001908152602001600020541015610af6576040517f08c379a0000000000000000000000000000000000000000000000000000000008152600401610aed9061149a565b60405180910390fd5b610afe610e30565b81600860003373ffffffffffffffffffffffffffffffffffffffff1673ffffffffffffffffffffffffffffffffffffffff1681526020019081526020016000206000828254610b4d91906113e6565b9250508190555081600860008573ffffffffffffffffffffffffffffffffffffffff1673ffffffffffffffffffffffffffffffffffffffff1681526020019081526020016000206000828254610ba3919061141a565b925050819055506000600760008573ffffffffffffffffffffffffffffffffffffffff1673ffffffffffffffffffffffffffffffffffffffff1681526020019081526020016000209050838160020160006101000a81548173ffffffffffffffffffffffffffffffffffffffff021916908373ffffffffffffffffffffffffffffffffffffffff160217905550338160010160006101000a81548173ffffffffffffffffffffffffffffffffffffffff021916908373ffffffffffffffffffffffffffffffffffffffff16021790555060018160040160006101000a81548160ff02191690831515021790555082816003018190555060055481600001819055506006849080600181540180825580915050600190039060005260206000200160009091909190916101000a81548173ffffffffffffffffffffffffffffffffffffffff021916908373ffffffffffffffffffffffffffffffffffffffff1602179055508373ffffffffffffffffffffffffffffffffffffffff163373ffffffffffffffffffffffffffffffffffffffff167fddf252ad1be2c89b69c2b068fc378daa952ba7f163c4a11628f55a4df523b3ef85604051610d649190610f15565b60405180910390a3600191505092915050565b60606006805480602002602001604051908101604052809291908181526020018280548015610dfb57602002820191906000526020600020905b8160009054906101000a900473ffffffffffffffffffffffffffffffffffffffff1673ffffffffffffffffffffffffffffffffffffffff1681526020019060010190808311610db1575b5050505050905090565b60055481565b6009602052816000526040600020602052806000526040600020600091509150505481565b60056000815480929190610e43906114ba565b9190505550565b600081519050919050565b600082825260208201905092915050565b60005b83811015610e84578082015181840152602081019050610e69565b60008484015250505050565b6000601f19601f8301169050919050565b6000610eac82610e4a565b610eb68185610e55565b9350610ec6818560208601610e66565b610ecf81610e90565b840191505092915050565b60006020820190508181036000830152610ef48184610ea1565b905092915050565b6000819050919050565b610f0f81610efc565b82525050565b6000602082019050610f2a6000830184610f06565b92915050565b600080fd5b600073ffffffffffffffffffffffffffffffffffffffff82169050919050565b6000610f6082610f35565b9050919050565b610f7081610f55565b8114610f7b57600080fd5b50565b600081359050610f8d81610f67565b92915050565b610f9c81610efc565b8114610fa757600080fd5b50565b600081359050610fb981610f93565b92915050565b600080600060608486031215610fd857610fd7610f30565b5b6000610fe686828701610f7e565b9350506020610ff786828701610f7e565b925050604061100886828701610faa565b9150509250925092565b60008115159050919050565b61102781611012565b82525050565b6000602082019050611042600083018461101e565b92915050565b60006020828403121561105e5761105d610f30565b5b600061106c84828501610f7e565b91505092915050565b61107e81610f55565b82525050565b600060a0820190506110996000830188610f06565b6110a66020830187611075565b6110b36040830186611075565b6110c06060830185610f06565b6110cd608083018461101e565b9695505050505050565b60006020820190506110ec6000830184611075565b92915050565b60006020828403121561110857611107610f30565b5b600061111684828501610faa565b91505092915050565b6000806040838503121561113657611135610f30565b5b600061114485828601610f7e565b925050602061115585828601610faa565b9150509250929050565b600081519050919050565b600082825260208201905092915050565b6000819050602082019050919050565b61119481610f55565b82525050565b60006111a6838361118b565b60208301905092915050565b6000602082019050919050565b60006111ca8261115f565b6111d4818561116a565b93506111df8361117b565b8060005b838110156112105781516111f7888261119a565b9750611202836111b2565b9250506001810190506111e3565b5085935050505092915050565b6000602082019050818103600083015261123781846111bf565b905092915050565b6000806040838503121561125657611255610f30565b5b600061126485828601610f7e565b925050602061127585828601610f7e565b9150509250929050565b7f4e487b7100000000000000000000000000000000000000000000000000000000600052602260045260246000fd5b600060028204905060018216806112c657607f821691505b6020821081036112d9576112d861127f565b5b50919050565b7f496e7375666669656369656e7420616d6f756e74000000000000000000000000600082015250565b6000611315601483610e55565b9150611320826112df565b602082019050919050565b6000602082019050818103600083015261134481611308565b9050919050565b7f496e7375666669656369656e7420616c6c6f77616e636520616d6f756e740000600082015250565b6000611381601e83610e55565b915061138c8261134b565b602082019050919050565b600060208201905081810360008301526113b081611374565b9050919050565b7f4e487b7100000000000000000000000000000000000000000000000000000000600052601160045260246000fd5b60006113f182610efc565b91506113fc83610efc565b9250828203905081811115611414576114136113b7565b5b92915050565b600061142582610efc565b915061143083610efc565b9250828201905080821115611448576114476113b7565b5b92915050565b7f496e73756666696369656e742076616c75650000000000000000000000000000600082015250565b6000611484601283610e55565b915061148f8261144e565b602082019050919050565b600060208201905081810360008301526114b381611477565b9050919050565b60006114c582610efc565b91507fffffffffffffffffffffffffffffffffffffffffffffffffffffffffffffffff82036114f7576114f66113b7565b5b60018201905091905056fea2646970667358221220aea25e115e702be97eff5a365bb8a6266c9d24c22dd917f5ec714e660e6ce0be64736f6c63430008120033",
  "linkReferences": {},
  "deployedLinkReferences": {}
}